{
  "contractName": "EHR",
  "abi": [
    {
      "inputs": [],
      "name": "doctorCount",
      "outputs": [
        {
          "internalType": "uint256",
          "name": "",
          "type": "uint256"
        }
      ],
      "stateMutability": "view",
      "type": "function"
    },
    {
      "inputs": [],
      "name": "medicineCount",
      "outputs": [
        {
          "internalType": "uint256",
          "name": "",
          "type": "uint256"
        }
      ],
      "stateMutability": "view",
      "type": "function"
    },
    {
      "inputs": [],
      "name": "patientCount",
      "outputs": [
        {
          "internalType": "uint256",
          "name": "",
          "type": "uint256"
        }
      ],
      "stateMutability": "view",
      "type": "function"
    },
    {
      "inputs": [
        {
          "internalType": "string",
          "name": "_name",
          "type": "string"
        },
        {
          "internalType": "string",
          "name": "_qualification",
          "type": "string"
        },
        {
          "internalType": "string",
          "name": "_workPlace",
          "type": "string"
        }
      ],
      "name": "registerDoctor",
      "outputs": [],
      "stateMutability": "nonpayable",
      "type": "function"
    },
    {
      "inputs": [
        {
          "internalType": "uint256",
          "name": "_doctorId",
          "type": "uint256"
        }
      ],
      "name": "viewDoctor",
      "outputs": [
        {
          "internalType": "uint256",
          "name": "",
          "type": "uint256"
        },
        {
          "internalType": "string",
          "name": "",
          "type": "string"
        },
        {
          "internalType": "string",
          "name": "",
          "type": "string"
        },
        {
          "internalType": "string",
          "name": "",
          "type": "string"
        }
      ],
      "stateMutability": "view",
      "type": "function"
    },
    {
      "inputs": [
        {
          "internalType": "string",
          "name": "_name",
          "type": "string"
        },
        {
          "internalType": "uint8",
          "name": "_age",
          "type": "uint8"
        }
      ],
      "name": "registerPatient",
      "outputs": [],
      "stateMutability": "nonpayable",
      "type": "function"
    },
    {
      "inputs": [
        {
          "internalType": "uint256",
          "name": "_patientId",
          "type": "uint256"
        },
        {
          "internalType": "uint8",
          "name": "_newAge",
          "type": "uint8"
        }
      ],
      "name": "updatePatientAge",
      "outputs": [],
      "stateMutability": "nonpayable",
      "type": "function"
    },
    {
      "inputs": [
        {
          "internalType": "uint256",
          "name": "_patientId",
          "type": "uint256"
        },
        {
          "internalType": "string",
          "name": "_disease",
          "type": "string"
        }
      ],
      "name": "addDisease",
      "outputs": [],
      "stateMutability": "nonpayable",
      "type": "function"
    },
    {
      "inputs": [
        {
          "internalType": "uint256",
          "name": "_patientId",
          "type": "uint256"
        }
      ],
      "name": "viewPatient",
      "outputs": [
        {
          "internalType": "uint256",
          "name": "",
          "type": "uint256"
        },
        {
          "internalType": "string",
          "name": "",
          "type": "string"
        },
        {
          "internalType": "uint256",
          "name": "",
          "type": "uint256"
        },
        {
          "internalType": "string[]",
          "name": "",
          "type": "string[]"
        }
      ],
      "stateMutability": "view",
      "type": "function"
    },
    {
      "inputs": [
        {
          "internalType": "uint256",
          "name": "_patientId",
          "type": "uint256"
        }
      ],
      "name": "viewPatientMedicines",
      "outputs": [
        {
          "internalType": "uint256[]",
          "name": "",
          "type": "uint256[]"
        }
      ],
      "stateMutability": "view",
      "type": "function"
    },
    {
      "inputs": [
        {
          "internalType": "string",
          "name": "_name",
          "type": "string"
        },
        {
          "internalType": "string",
          "name": "_expiryDate",
          "type": "string"
        },
        {
          "internalType": "string",
          "name": "_dose",
          "type": "string"
        },
        {
          "internalType": "uint256",
          "name": "_price",
          "type": "uint256"
        }
      ],
      "name": "addMedicine",
      "outputs": [],
      "stateMutability": "nonpayable",
      "type": "function"
    },
    {
      "inputs": [
        {
          "internalType": "uint256",
          "name": "_patientId",
          "type": "uint256"
        },
        {
          "internalType": "uint256",
          "name": "_medicineId",
          "type": "uint256"
        }
      ],
      "name": "prescribeMedicine",
      "outputs": [],
      "stateMutability": "nonpayable",
      "type": "function"
    },
    {
      "inputs": [
        {
          "internalType": "uint256",
          "name": "_medicineId",
          "type": "uint256"
        }
      ],
      "name": "viewMedicine",
      "outputs": [
        {
          "internalType": "uint256",
          "name": "",
          "type": "uint256"
        },
        {
          "internalType": "string",
          "name": "",
          "type": "string"
        },
        {
          "internalType": "string",
          "name": "",
          "type": "string"
        },
        {
          "internalType": "string",
          "name": "",
          "type": "string"
        },
        {
          "internalType": "uint256",
          "name": "",
          "type": "uint256"
        }
      ],
      "stateMutability": "view",
      "type": "function"
    }
  ],
  "bytecode": "0x608060405234801561001057600080fd5b506118eb806100206000396000f3fe608060405234801561001057600080fd5b50600436106100cf5760003560e01c806378522bc41161008c578063b667e36611610066578063b667e36614610204578063ddfe2e8714610220578063f82d4db314610254578063f86657b514610270576100cf565b806378522bc4146101ac578063a0303c41146101ca578063abe4a322146101e8576100cf565b80632e28200c146100d457806337fc33d0146100f05780634dafd4901461012357806350c7a91214610141578063596b6ed71461015d5780636bfcc6a614610190575b600080fd5b6100ee60048036038101906100e99190610eb9565b6102a0565b005b61010a60048036038101906101059190610f4b565b6103a6565b60405161011a9493929190611006565b60405180910390f35b61012b6105b2565b6040516101389190611060565b60405180910390f35b61015b6004803603810190610156919061107b565b6105b8565b005b61017760048036038101906101729190610f4b565b61065b565b604051610187949392919061122e565b60405180910390f35b6101aa60048036038101906101a59190611281565b610841565b005b6101b4610874565b6040516101c19190611060565b60405180910390f35b6101d261087a565b6040516101df9190611060565b60405180910390f35b61020260048036038101906101fd91906112c1565b610880565b005b61021e6004803603810190610219919061137c565b610935565b005b61023a60048036038101906102359190610f4b565b610973565b60405161024b9594939291906113bc565b60405180910390f35b61026e60048036038101906102699190611424565b610b94565b005b61028a60048036038101906102859190610f4b565b610be1565b604051610297919061153e565b60405180910390f35b600560008154809291906102b39061158f565b9190505550604051806080016040528060055481526020018381526020018260ff168152602001600067ffffffffffffffff8111156102f5576102f4610d55565b5b60405190808252806020026020018201604052801561032857816020015b60608152602001906001900390816103135790505b5081525060016000600554815260200190815260200160002060008201518160000155602082015181600101908161036091906117e3565b5060408201518160020160006101000a81548160ff021916908360ff160217905550606082015181600301908051906020019061039e929190610c4c565b509050505050565b600060608060606000806000878152602001908152602001600020604051806080016040529081600082015481526020016001820180546103e690611606565b80601f016020809104026020016040519081016040528092919081815260200182805461041290611606565b801561045f5780601f106104345761010080835404028352916020019161045f565b820191906000526020600020905b81548152906001019060200180831161044257829003601f168201915b5050505050815260200160028201805461047890611606565b80601f01602080910402602001604051908101604052809291908181526020018280546104a490611606565b80156104f15780601f106104c6576101008083540402835291602001916104f1565b820191906000526020600020905b8154815290600101906020018083116104d457829003601f168201915b5050505050815260200160038201805461050a90611606565b80601f016020809104026020016040519081016040528092919081815260200182805461053690611606565b80156105835780601f1061055857610100808354040283529160200191610583565b820191906000526020600020905b81548152906001019060200180831161056657829003601f168201915b505050505081525050905080600001518160200151826040015183606001519450945094509450509193509193565b60065481565b600460008154809291906105cb9061158f565b91905055506040518060800160405280600454815260200184815260200183815260200182815250600080600454815260200190815260200160002060008201518160000155602082015181600101908161062691906117e3565b50604082015181600201908161063c91906117e3565b50606082015181600301908161065291906117e3565b50905050505050565b60006060600060606000600160008781526020019081526020016000206040518060800160405290816000820154815260200160018201805461069d90611606565b80601f01602080910402602001604051908101604052809291908181526020018280546106c990611606565b80156107165780601f106106eb57610100808354040283529160200191610716565b820191906000526020600020905b8154815290600101906020018083116106f957829003601f168201915b505050505081526020016002820160009054906101000a900460ff1660ff1660ff16815260200160038201805480602002602001604051908101604052809291908181526020016000905b8282101561080d57838290600052602060002001805461078090611606565b80601f01602080910402602001604051908101604052809291908181526020018280546107ac90611606565b80156107f95780601f106107ce576101008083540402835291602001916107f9565b820191906000526020600020905b8154815290600101906020018083116107dc57829003601f168201915b505050505081526020019060010190610761565b5050505081525050905080600001518160200151826040015183606001518160ff1691509450945094509450509193509193565b806001600084815260200190815260200160002060020160006101000a81548160ff021916908360ff1602179055505050565b60045481565b60055481565b600660008154809291906108939061158f565b91905055506040518060a001604052806006548152602001858152602001848152602001838152602001828152506002600060065481526020019081526020016000206000820151816000015560208201518160010190816108f591906117e3565b50604082015181600201908161090b91906117e3565b50606082015181600301908161092191906117e3565b506080820151816004015590505050505050565b600360008381526020019081526020016000208190806001815401808255809150506001900390600052602060002001600090919091909150555050565b60006060806060600080600260008881526020019081526020016000206040518060a0016040529081600082015481526020016001820180546109b590611606565b80601f01602080910402602001604051908101604052809291908181526020018280546109e190611606565b8015610a2e5780601f10610a0357610100808354040283529160200191610a2e565b820191906000526020600020905b815481529060010190602001808311610a1157829003601f168201915b50505050508152602001600282018054610a4790611606565b80601f0160208091040260200160405190810160405280929190818152602001828054610a7390611606565b8015610ac05780601f10610a9557610100808354040283529160200191610ac0565b820191906000526020600020905b815481529060010190602001808311610aa357829003601f168201915b50505050508152602001600382018054610ad990611606565b80601f0160208091040260200160405190810160405280929190818152602001828054610b0590611606565b8015610b525780601f10610b2757610100808354040283529160200191610b52565b820191906000526020600020905b815481529060010190602001808311610b3557829003601f168201915b50505050508152602001600482015481525050905080600001518160200151826040015183606001518460800151955095509550955095505091939590929450565b6001600083815260200190815260200160002060030181908060018154018082558091505060019003906000526020600020016000909190919091509081610bdc91906117e3565b505050565b606060036000838152602001908152602001600020805480602002602001604051908101604052809291908181526020018280548015610c4057602002820191906000526020600020905b815481526020019060010190808311610c2c575b50505050509050919050565b828054828255906000526020600020908101928215610c94579160200282015b82811115610c93578251829081610c8391906117e3565b5091602001919060010190610c6c565b5b509050610ca19190610ca5565b5090565b5b80821115610cc55760008181610cbc9190610cc9565b50600101610ca6565b5090565b508054610cd590611606565b6000825580601f10610ce75750610d06565b601f016020900490600052602060002090810190610d059190610d09565b5b50565b5b80821115610d22576000816000905550600101610d0a565b5090565b6000604051905090565b600080fd5b600080fd5b600080fd5b600080fd5b6000601f19601f8301169050919050565b7f4e487b7100000000000000000000000000000000000000000000000000000000600052604160045260246000fd5b610d8d82610d44565b810181811067ffffffffffffffff82111715610dac57610dab610d55565b5b80604052505050565b6000610dbf610d26565b9050610dcb8282610d84565b919050565b600067ffffffffffffffff821115610deb57610dea610d55565b5b610df482610d44565b9050602081019050919050565b82818337600083830152505050565b6000610e23610e1e84610dd0565b610db5565b905082815260208101848484011115610e3f57610e3e610d3f565b5b610e4a848285610e01565b509392505050565b600082601f830112610e6757610e66610d3a565b5b8135610e77848260208601610e10565b91505092915050565b600060ff82169050919050565b610e9681610e80565b8114610ea157600080fd5b50565b600081359050610eb381610e8d565b92915050565b60008060408385031215610ed057610ecf610d30565b5b600083013567ffffffffffffffff811115610eee57610eed610d35565b5b610efa85828601610e52565b9250506020610f0b85828601610ea4565b9150509250929050565b6000819050919050565b610f2881610f15565b8114610f3357600080fd5b50565b600081359050610f4581610f1f565b92915050565b600060208284031215610f6157610f60610d30565b5b6000610f6f84828501610f36565b91505092915050565b610f8181610f15565b82525050565b600081519050919050565b600082825260208201905092915050565b60005b83811015610fc1578082015181840152602081019050610fa6565b60008484015250505050565b6000610fd882610f87565b610fe28185610f92565b9350610ff2818560208601610fa3565b610ffb81610d44565b840191505092915050565b600060808201905061101b6000830187610f78565b818103602083015261102d8186610fcd565b905081810360408301526110418185610fcd565b905081810360608301526110558184610fcd565b905095945050505050565b60006020820190506110756000830184610f78565b92915050565b60008060006060848603121561109457611093610d30565b5b600084013567ffffffffffffffff8111156110b2576110b1610d35565b5b6110be86828701610e52565b935050602084013567ffffffffffffffff8111156110df576110de610d35565b5b6110eb86828701610e52565b925050604084013567ffffffffffffffff81111561110c5761110b610d35565b5b61111886828701610e52565b9150509250925092565b600081519050919050565b600082825260208201905092915050565b6000819050602082019050919050565b600082825260208201905092915050565b600061116a82610f87565b611174818561114e565b9350611184818560208601610fa3565b61118d81610d44565b840191505092915050565b60006111a4838361115f565b905092915050565b6000602082019050919050565b60006111c482611122565b6111ce818561112d565b9350836020820285016111e08561113e565b8060005b8581101561121c57848403895281516111fd8582611198565b9450611208836111ac565b925060208a019950506001810190506111e4565b50829750879550505050505092915050565b60006080820190506112436000830187610f78565b81810360208301526112558186610fcd565b90506112646040830185610f78565b818103606083015261127681846111b9565b905095945050505050565b6000806040838503121561129857611297610d30565b5b60006112a685828601610f36565b92505060206112b785828601610ea4565b9150509250929050565b600080600080608085870312156112db576112da610d30565b5b600085013567ffffffffffffffff8111156112f9576112f8610d35565b5b61130587828801610e52565b945050602085013567ffffffffffffffff81111561132657611325610d35565b5b61133287828801610e52565b935050604085013567ffffffffffffffff81111561135357611352610d35565b5b61135f87828801610e52565b925050606061137087828801610f36565b91505092959194509250565b6000806040838503121561139357611392610d30565b5b60006113a185828601610f36565b92505060206113b285828601610f36565b9150509250929050565b600060a0820190506113d16000830188610f78565b81810360208301526113e38187610fcd565b905081810360408301526113f78186610fcd565b9050818103606083015261140b8185610fcd565b905061141a6080830184610f78565b9695505050505050565b6000806040838503121561143b5761143a610d30565b5b600061144985828601610f36565b925050602083013567ffffffffffffffff81111561146a57611469610d35565b5b61147685828601610e52565b9150509250929050565b600081519050919050565b600082825260208201905092915050565b6000819050602082019050919050565b6114b581610f15565b82525050565b60006114c783836114ac565b60208301905092915050565b6000602082019050919050565b60006114eb82611480565b6114f5818561148b565b93506115008361149c565b8060005b8381101561153157815161151888826114bb565b9750611523836114d3565b925050600181019050611504565b5085935050505092915050565b6000602082019050818103600083015261155881846114e0565b905092915050565b7f4e487b7100000000000000000000000000000000000000000000000000000000600052601160045260246000fd5b600061159a82610f15565b91507fffffffffffffffffffffffffffffffffffffffffffffffffffffffffffffffff82036115cc576115cb611560565b5b600182019050919050565b7f4e487b7100000000000000000000000000000000000000000000000000000000600052602260045260246000fd5b6000600282049050600182168061161e57607f821691505b602082108103611631576116306115d7565b5b50919050565b60008190508160005260206000209050919050565b60006020601f8301049050919050565b600082821b905092915050565b6000600883026116997fffffffffffffffffffffffffffffffffffffffffffffffffffffffffffffffff8261165c565b6116a3868361165c565b95508019841693508086168417925050509392505050565b6000819050919050565b60006116e06116db6116d684610f15565b6116bb565b610f15565b9050919050565b6000819050919050565b6116fa836116c5565b61170e611706826116e7565b848454611669565b825550505050565b600090565b611723611716565b61172e8184846116f1565b505050565b5b818110156117525761174760008261171b565b600181019050611734565b5050565b601f8211156117975761176881611637565b6117718461164c565b81016020851015611780578190505b61179461178c8561164c565b830182611733565b50505b505050565b600082821c905092915050565b60006117ba6000198460080261179c565b1980831691505092915050565b60006117d383836117a9565b9150826002028217905092915050565b6117ec82610f87565b67ffffffffffffffff81111561180557611804610d55565b5b61180f8254611606565b61181a828285611756565b600060209050601f83116001811461184d576000841561183b578287015190505b61184585826117c7565b8655506118ad565b601f19841661185b86611637565b60005b828110156118835784890151825560018201915060208501945060208101905061185e565b868310156118a0578489015161189c601f8916826117a9565b8355505b6001600288020188555050505b50505050505056fea2646970667358221220468f7e76add0a9aed8e0db1380a8c22d98d8e04e2a8177175e7052b80378161a64736f6c63430008130033",
  "immutableReferences": {},
  "source": "// SPDX-License-Identifier: MIT\n\npragma solidity >=0.7.0 <0.9.0;\n//This is the doctors information for the portal \ncontract EHR {\n       struct Doctor {\n            uint id;\n            string name;\n            string qualification;\n            string workPlace;\n        }\n\n//This is the patient information for the portal\n        struct Patient {\n            uint id;\n            string name;\n            uint8 age;\n            string[] diseases;\n        }\n\n//This is the medicine information for the portal \n        struct Medicine {\n            uint id;\n            string name;\n            string expiryDate;\n            string dose;\n            uint price;\n        }\n\n\n\n        mapping(uint => Doctor) doctors;\n        mapping(uint => Patient) patients;\n        mapping(uint => Medicine) medicines;\n        mapping(uint => uint[]) patientMedicines;\n\n\n        uint public doctorCount;\n        uint public patientCount;\n        uint public medicineCount;\n\n\n\n        function registerDoctor(string memory _name, string memory _qualification, string memory _workPlace) public {\n                doctorCount++;\n                doctors[doctorCount] = Doctor(doctorCount, _name, _qualification, _workPlace);\n        }\n\n\n        function viewDoctor(uint _doctorId) public view returns (uint, string memory, string memory, string memory) {\n                Doctor memory d = doctors[_doctorId];\n                return (d.id, d.name, d.qualification, d.workPlace);\n        }\n\n\n        function registerPatient(string memory _name, uint8 _age) public {\n                patientCount++;\n                patients[patientCount] = Patient(patientCount, _name, _age, new string[](0));\n        \n        \n        }\n\n\n        function updatePatientAge(uint _patientId, uint8 _newAge) public {\n                patients[_patientId].age = _newAge;\n        }\n\n\n        function addDisease(uint _patientId, string memory _disease) public {\n                patients[_patientId].diseases.push(_disease);\n        }\n\n\n        function viewPatient(uint _patientId) public view returns (uint, string memory, uint, string[] memory) {\n                Patient memory p = patients[_patientId];\n                return (p.id, p.name, p.age, p.diseases);\n        }\n\n\n        function viewPatientMedicines(uint _patientId) public view returns (uint[] memory) {\n                return patientMedicines[_patientId];\n        }\n\n\n        function addMedicine(string memory _name, string memory _expiryDate, string memory _dose, uint _price) public {\n                medicineCount++;\n                medicines[medicineCount] = Medicine(medicineCount, _name, _expiryDate, _dose, _price);\n        }\n\n\n        function prescribeMedicine(uint _patientId, uint _medicineId) public {\n                patientMedicines[_patientId].push(_medicineId);\n        }\n\n\n        function viewMedicine(uint _medicineId) public view returns (uint, string memory, string memory, string memory, uint) {\n                Medicine memory m = medicines[_medicineId];\n                return (m.id, m.name, m.expiryDate, m.dose, m.price);\n        }\n\n\n       \n\n\n\n\n\n\n\n}",
  "sourcePath": "/Users/kanoepelfrey/EHR /contracts/DoctorPatient.sol",
  "compiler": {
    "name": "solc",
    "version": "0.8.19+commit.7dd6d404.Emscripten.clang"
  },
  "schemaVersion": "3.4.13",
  "updatedAt": "2023-03-31T03:27:49.007Z",
  "devdoc": {
    "kind": "dev",
    "methods": {},
    "version": 1
  },
  "userdoc": {
    "kind": "user",
    "methods": {},
    "version": 1
  }
}